:020000041000EA
:1000000000B5324B212058609868022188439860DF
:10001000D860186158612E4B002199600221596106
:100020000121F02299502B49196001219960352056
:1000300000F044F80222904214D00621196600F024
:1000400034F8196E01211966002018661A6600F04E
:100050002CF8196E196E196E052000F02FF8012189
:100060000842F9D1002199601B49196000215960AB
:100070001A491B48016001219960EB211966A021F2
:10008000196600F012F800219960164914480160C1
:100090000121996001BC002800D000471248134993
:1000A000086003C880F30888084703B5996A0420EC
:1000B0000142FBD001200142F8D103BD02B5186610
:1000C0001866FFF7F2FF186E186E02BD00000240BE
:1000D000000000180000070000035F00212200005C
:1000E000F4000018222000A00001001008ED00E03C
:1000F00000000000000000000000000074B24E7A12
:1001000000200420F7010010C3010010C5010010F9
:10011000C1010010C1010010C1010010C101001097
:10012000C1010010C1010010C1010010C701001081
:10013000C1010010C1010010C9010010CB01001065
:10014000CD010010CD010010CD010010CD01001037
:10015000CD010010CD010010CD010010CD01001027
:10016000CD010010CD010010CD010010CD01001017
:10017000CD010010CD010010CD010010CD01001007
:10018000CD010010CD010010CD010010CD010010F7
:10019000CD010010CD010010CD010010CD010010E7
:1001A000CD010010CD010010CD010010CD010010D7
:1001B000CD010010CD010010CD010010CD010010C7
:1001C00000BE00BE00BE00BE00BE00BEEFF3058054
:1001D000103800BEF2EB8871C42F0610E42F061011
:1001E0003802001090A31AE71E481F49086006C88D
:1001F00081F3088810471D480068002801D019487D
:10020000F3E70DA40ECC002902D000F012F8F9E7B4
:100210001749184A002000E001C19142FCD116495B
:100220008847164988471649884700BEFDE701C937
:1002300001C29A42FBD37047E42F0610E000002071
:10024000E01E0020E44D0610000004200000042001
:10025000E44D0610001004200010042000000000EF
:10026000704700000000000008ED00E0000000D032
:10027000E01E0020DCEA0020A55E001075100010D2
:10028000655E0010F8B5C04606480749091A8B108C
:10029000C90FC91810B5491003D0044B002B00D06A
:1002A000984710BDE01E0020E01E00200000000066
:1002B000054B10B5002B03D00449054800E000BFF2
:1002C000FFF7E2FF10BDC0460000000034D9002057
:1002D0001CE7011010B50C00200004490BF028FAAF
:1002E000200000210BF040FA002010BDF1020010A8
:1002F000F0B557464E46DE464546E0B591460F00FE
:10030000CDB0002A00D19EE00C20556804F056F9CB
:10031000041E00D17AE18020800104F04FF92060B2
:10032000002800D16FE12900DB4805F0C5FF280057
:10033000DA491AF021FB00286AD002F0A7FC002954
:1003400000D17BE0FA220023920003F00BF80CAB03
:100350009846D34B0690186804F0CEF8D14B061C93
:10036000D149186804F089F8011C301C04F06EF8BB
:1003700004F0EAF804900591CC4BCD4E19687068F2
:1003800004F064F804F0E0F802900391C94B30687F
:10039000196804F05BF804F0D7F80090019180210F
:1003A000C54D49002A00404605F0E4FC41460300E3
:1003B000206800918021C14A890105F0DBFC606062
:1003C0004B46380019890AF091FE48460AF0F4F9C4
:1003D00000232100A36038000BF0A6F93800B849CB
:1003E0000BF0B4F964236268FB5A9A4200D91A00F0
:1003F00001233800216892B20DF050FE002819D078
:1004000000204DB0F0BCBB46B246A946A046F0BDA8
:100410002800AC491AF0B0FA002818D08021AA4B65
:100420002068AA4A00938901A94B05F0A3FCA94BB7
:100430006360C5E738000EF04FFCE1E7FA21890060
:1004400002F052FF83E708000BF0ACFDD8E728006C
:10045000A1491AF091FA00280BD080219F4B206807
:100460009A4A009389019E4B05F084FC9D4B636082
:10047000A6E728009C491AF07FFA00280BD08021BB
:100480009A4B2068914A00938901994B05F072FCC0
:10049000984B636094E7280097491AF06DFA00289A
:1004A0000BD08021954B2068884A00938901944B9A
:1004B00005F060FC934B636082E7280092491AF0D4
:1004C0005BFA002851D0280090491AF055FA00280C
:1004D00043D0051D29008E4805F0EEFE28008D4909
:1004E0001AF04AFA002871D00C3018F039FA03F0EB
:1004F0003DFA704E3060280087491AF03DFA002816
:1005000061D00C3018F02CFA684B9A4603F02EFAA2
:1005100053461860280081491AF02EFA00284ED060
:100520000D3018F01DFA03F021FA83465D4B186078
:10053000306804F009F8050058460E0004F004F88D
:10054000534602900391186803F0FEFF2A000090C2
:1005500001913300724805F0AFFE8F222068714987
:1005600004F062F88E2363602AE728006E491AF0CF
:1005700003FA00282CD04B4B6C4D186803F0E4FFB5
:1005800004900591494B0CAE186803F0DDFF029012
:100590000391484B186803F0D7FF00900191802128
:1005A0002A004900300005F0E5FB80210300434AA2
:1005B00020688901009605F0DDFB606000E7394B9B
:1005C0001B689B46B4E7394B9A46A3E7394E92E73E
:1005D000280057491AF0D0F9002820D028004B49AC
:1005E0001AF0CAF90028B8D0524D534B0395534D19
:1005F000534A0295534D54490195544D043000958A
:1006000019F0FCFEA9E7200003F0FCFF48460AF0C1
:10061000D3F838000BF0C6FC01204042F1E6280078
:100620004B491AF0A9F9002800D195E0414B494DFA
:10063000186803F089FF0A900B91404B0CAE1868C4
:1006400003F082FF089009913E4B186803F07CFF8D
:10065000069007913D4B186803F076FF04900591D2
:10066000354B186803F070FF02900391344B186803
:1006700003F06AFF0090019180212A0049003000B8
:1006800005F078FB8021009603000C4A2068890160
:1006900005F070FB606093E620E701103CE7011075
:1006A0006C3B002068D900200000C84294EA00207A
:1006B0006C3600208CEA002048E701108CE701101E
:1006C000590800100CE801108820021018E80110E9
:1006D00082090000E609000080E8011014170210EA
:1006E00072090000D60900008CE80110840D021088
:1006F0008F090000F309000098E801100C2A02108D
:10070000AE0A0000120B0000A4E80110B4E80110CA
:10071000BCE80110D4E80110E4E80110F4E801108D
:1007200004E9011038E90110C8E90110D8E9011005
:1007300014EA0110C8160020D8160020CC1600209C
:10074000DC160020D016002024EA0110D416002068
:1007500070EA01107CEA011028001A491AF00CF91D
:100760002668194B002808D0802130001B68174AE2
:10077000890105F0FFFA606022E61A68144D002A2C
:100780000CD01A68012A16D01A68022A17D01A68E3
:10079000032A12D01B68042B00D10E4D28001AF03A
:1007A0001FFA802103000C4A30000095890105F0F2
:1007B000E1FA606004E6094DF0E7094DEEE7094D06
:1007C000ECE7C046E0EA011054D90020ECEA011041
:1007D000BC3402100C2A021018E801108820021004
:1007E000840D021014170210F8B5040002F04EFA3E
:1007F00002000B0016001F00134D28686968361AA6
:100800008F41002F16DD2A606B60052C02D0062C6C
:1008100016D0F8BD03220D4803680133D917890F9C
:100820005B1813405B1A0121094A036013784B409F
:100830001370EEE7002FECD106498E42E3D8E8E7CB
:100840000021080002F00AFCB020002054D900204A
:10085000D3EA00208FD00300836870B5D3184268B4
:1008600004000D00836093421BD26421D21A685A9F
:1008700096B2011CB04204D88AB2002A05D10020E9
:1008800070BD111C8AB2002AF9D021682800C9184D
:1008900001230DF003FC0028F1D128000EF01CFA12
:1008A000EDE708000BF07EFB206803F0ABFE2000B4
:1008B00003F0A8FEE3E7C046F0B5C64600B5062043
:1008C00086B001F069F9D02340221B069A6201210B
:1008D0000022062001F072F86A4C01222300042154
:1008E000062001F0BFF8230001220421052001F0B9
:1008F000B9F805F009FC322002F02AF96249634890
:1009000008F0CEF90321022001F03EF80321032074
:1009100001F03AF800220121022001F04FF80022F4
:100920000121032001F04AF85749594808F0B8F965
:100930000321002001F028F80321012001F024F810
:1009400000220121002001F039F8002201210120BC
:1009500001F034F84F49504817F000FA062105001D
:10096000072001F011F801230021072200934A48D3
:1009700017F0CCFA80235B020293EB1CEA011B0305
:100980001343464A052013400393454B0593454BBB
:10099000049302F083FA03F0AAFD434903F059FDE2
:1009A000EC21890503F052FD061C03F0C7FD84B25B
:1009B0000023002C0ED0200003F099FD011C301CF8
:1009C00003F041FD8721C90503F057FD03F0B6FD93
:1009D000C3B21B02012624041C4302942E4C2A009D
:1009E00002AB002500212000F42717F0E9FA236864
:1009F0000421334323600A2000F0C6FF2B4B2C4C0C
:100A0000984665667F00E56625676367294BA7669C
:100A100066661B68284A1B041B0C04211360152002
:100A200000F0B2FF4346A56225636563A363234BD1
:100A3000E762A6621B68224A1B0C1B0413600B2092
:100A400001F0AAF8D024802324061B0163620C2045
:100A500001F0A2F880235B0163620D2001F09CF895
:100A600080239B016362052001F096F82023002279
:100A700001210520A36200F0A1FF06B080BCB846AA
:100A8000F0BDC046E9070010801A0600A817002034
:100A9000B01700207C3F021000002050FFFFFF9F96
:100AA000001C0020000006700024F44AFF0F000024
:100AB00000000540700005407010054034000540FE
:100AC00034100540F8B5214E3378002B00D1F8BD25
:100AD0001F4F3C687D6802F0D9F8001BA94100292E
:100AE00003DCF4D11B4B9842F1D902F0CFF8386007
:100AF00079600121184A13784B40137022D0FA22F2
:100B0000FA2012041549164C0B68164D43401B047D
:100B10001B0C23602B68144853401B0C134A1B0406
:100B20000360136801331360072BD0DD00270B68C7
:100B300037701B041B0C23602B681B0C1B04036009
:100B40001760C4E700220020DCE7C046C7EA0020A7
:100B5000C02100208FD00300CBEA002070000540A8
:100B6000701005403400054034100540842C0020EE
:100B7000F0B5DE4657464E464546E0B5BE4EBF4B45
:100B8000356885B01968281C03F060FC7368041C84
:100B90009A46BB4B5046196803F058FCB94B642188
:100BA0001B68804618009B4602F076FB03F0A4FC0D
:100BB000B54B196803F04AFC8146281C03F0C4FCBD
:100BC000060058460F0003F097FCB04903F041FCC3
:100BD00003F0BAFC02900391504603F0B5FCAC4D13
:100BE00032003B0000900191280005F065FB201CBD
:100BF00003F0AAFC060048460F0003F0A5FC029093
:100C00000391404603F0A0FCA24D009001913B00EF
:100C10003200280005F050FB9F4B211C186803F0A0
:100C20005BFC002800D07FE09C4B211C186803F07F
:100C300059FC002837D19A4B4146186803F04CFC08
:100C4000002800D054E1974B4146186803F04AFC55
:100C5000002800D081E1944B4946186803F03CFC21
:100C6000002800D0D5E0914B4946186803F03AFCC3
:100C7000002800D0B7E1FF238D4E802437001B06EB
:100C800098468C4DC8376402002230687168002392
:100C900002F0C8FD002800D089E06B682342FCD137
:100CA00043462B6189E0844805F07EFAFF23834E9A
:100CB000802437001B0298467E4DC837640200220C
:100CC00030687168002302F0ADFD00281ED16B680A
:100CD0002342FCD1434608362B61B742EFD1784B13
:100CE0001C78002C00D18AE0D02380221B06520100
:100CF0005A61802292019A61802212019A6105B0A4
:100D0000F0BCBB46B246A946A046F0BD6B681A00CF
:100D100022402342FAD108362A61B742CFD1684B2C
:100D20001C78002CE0D16AE0664805F03DFAFF230C
:100D3000654E802437001B0498465E4DC837640218
:100D4000002230687168002302F06CFD002817D182
:100D50006B682342FCD1434608362B61B742EFD182
:100D6000574B1C78002C18D0D02380221B069201F0
:100D70005A61802252019A61802212019A61BEE773
:100D80006B681A0022402342FAD108362A61B74222
:100D9000D6D14B4B1C78002CE6D101221A7001F001
:100DA00075FF4A4B18605960494B1C60DCE76B6863
:100DB0001A0022402342FAD12A610836BE4200D0EE
:100DC00062E73F4B1A78002A0DD000221A70414B7F
:100DD000414A1B681B041B0C1360404B404A1B68B4
:100DE0001B0C1B041360D02380221B0612015A61C6
:100DF000802252019A61802292019A617FE701224A
:100E00001A7001F043FF314B18605960304B1C6081
:100E10006AE7344805F0C8F9334E344B3700802474
:100E20009846244DC8376402002230687168002358
:100E300002F0F8FC002805D16B682342FCD1434640
:100E40002B6105E06B681A0022402342FAD12A6127
:100E50000836BE42E8D11A4B1C78002C00D1AEE017
:100E6000D02380221B0692015A61802252015A61CE
:100E7000802212019A6142E76C3600208CEA002041
:100E800094EA00206C3B002068D900200000C84292
:100E900074EB0110B4EB0110D8160020DC16002012
:100EA000D0160020D4160020C8160020CC16002032
:100EB000E01200200000205008EC01100016002075
:100EC000C7EA0020F4EB011038150020C0210020F3
:100ED000842C00207000054070100540340005404F
:100EE000341005406CEC01101812002000FF006463
:100EF000534805F059F9534E534B37008024984618
:100F0000524DC8376402002230687168002302F035
:100F100089FC002817D16B682342FCD14346083670
:100F20002B61BE42EFD14A4B1C78002C51D0D0230C
:100F300080221B0652015A61802292019A6180220E
:100F400012015A61DBE66B681A0022402342FAD193
:100F500008362A61BE42D6D1E5E73E4805F024F9BD
:100F60003D4E3E4B370080249846384DC8376402CA
:100F7000002230687168002302F054FC002805D17B
:100F80006B682342FCD143462B6105E06B681A0075
:100F900022402342FAD12A610836BE42E8D12C4BC6
:100FA0001C78002C42D0D02380221B0692015A616B
:100FB000802252019A61802212015A619FE6012229
:100FC0001A7001F063FE264B18605960254B1C60B7
:100FD00046E701221A7001F059FE214B1860596052
:100FE000204B1C60A3E7204805F0DEF81F4E204B85
:100FF000370080249846154DC837640200223068B7
:101000007168002302F00EFC002805D16B682342B2
:10101000FCD143462B6105E06B681A002240234255
:10102000FAD12A610836BE42E8D158E601221A7088
:1010300001F02CFE0A4B186059600A4B1C60B2E7A5
:1010400034EC0110A813002000FF00FF0000205026
:10105000C7EA00204CEC0110701400200000FFA52E
:10106000C0210020842C002080EC011050110020B1
:101070000000FFC8F0B5DE4657464E464546E0B58F
:1010800093B0FFF719FC864B1C001800039300F087
:101090003DFA20000CA900F007FB824B1C00180051
:1010A000049300F0F3F9200000F03EF97E4C06E0D6
:1010B000200005F079F8FA20800001F049FD12F0D7
:1010C000FBFB0028F4D112F087FB784805F06CF8A0
:1010D000774E784D784C06E0300005F065F8FA2040
:1010E000C00001F035FD29002000744B744A12F055
:1010F00081FB0028F0D1734805F056F8724B186850
:10110000002807D0043012F0A5F9704B0100180038
:1011100005F0D2F80AF07EFD041E00D1BBE06C4958
:10112000502209F0F1FE011E00D0A9E0FF212000AD
:1011300009F064FF002800D1A9E066490AF022FB0B
:10114000654805F031F8654B654E9946654B05934A
:10115000654B0693654B9A46654B9B46654B984697
:10116000654B0793654B0893654B09934346D846F7
:101170009B462FE043463068196803F067F95B46E9
:1011800002901968706803F061F9071CFFF7F0FC22
:10119000306803F0D9F9040002980D0003F0D4F987
:1011A00022002B0000900191079805F085F87068E7
:1011B00003F0CAF90400381C0D0003F0C5F9220041
:1011C000009001912B00089805F076F8FA20400075
:1011D00001F0BEFC12F064FBFFF774FC0BAA03984D
:1011E0000AA900F0B1F90CA90A9800F0D9F90CAAE3
:1011F0000A990B9800F0ECF94B46186002F046FB98
:101200000022404B04000D0002F0B3FA3E4A3F4B6F
:1012100002F056FF02000B0000203D4902F09FFA49
:1012200000223C4B02F0BFFA02000B00059805F0CB
:1012300043F8002220002900374B02F09AFA4B466F
:1012400004000D001868642102F026F803F054F938
:101250005346196803F0FAF803F076F9220000907B
:1012600001912B00069805F027F83100049800F052
:1012700091F8002800D07DE7099804F095FFA5E7D4
:10128000264805F019F820000AF08CFE5BE7244898
:1012900004F08AFF57E7234804F086FF53E7C0466F
:1012A000B0170020A817002098EC0110B4EC011032
:1012B000CCEC011000ED01100CED011030750000B8
:1012C0000400400020ED011024D9002034ED01106D
:1012D00030470210D5020010A8ED01106C3B002031
:1012E0006C360020CCED0110E8ED011068D900202B
:1012F0008CEA002094EA002010EE01103CEE011070
:1013000064EE0110D0BCF840EBE2361AC05BC83F77
:101310000000F03F40A5E54000408F4064ED011023
:1013200090ED01104CED0110F0B5C64600B584B04B
:101330006946174B06001A880B258A819B7803AAF9
:101340008B73002338210093033307F0D1FC322044
:1013500001F0FEFB00230A24984608276D4443460B
:101360002A00009338210123300007F0CBFC2B78B2
:101370001F420AD10A20013C01F0EAFB002CEED109
:10138000002004B080BCB846F0BD0120F9E7C0469B
:1013900080EE0110F0B5C64600B586B088466946B5
:1013A000354B0B251A8806008A819B7803AA8B731C
:1013B000002338210093033307F09AFC0A24002706
:1013C0006D4401232A0038213000009707F09AFC71
:1013D0002B787F2B0DD90A20013C01F0B9FB002CA2
:1013E000EFD12B787F2B04D9002006B080BCB84603
:1013F000F0BD0023382100933000063304AA07F023
:1014000081FC0628F0D16B46DC7C587C9B7C000379
:101410001B0118432309184303F069F803F094F8FB
:101420000022164B02F0BFF90022154B02F0BBF967
:1014300002F09CFA43465860F02320041B03184036
:101440006B469B8A5BBA9BB2184303F050F803F0DB
:101450007BF800220B4B02F0A6F90022084B02F0A9
:10146000A2F9094B002202F07AF902F07FFA434612
:1014700018600120B9E7C04684EE01100000594011
:101480000000B03E0000694000004940F0B5C6468B
:101490000A220024BA2300B584B06A4413703821AC
:1014A000B93B0094060007F023FC142001F050FB28
:1014B0006946154B30001A880B258A819B7803AA50
:1014C0008B7303233821009407F012FC322001F0C3
:1014D0003FFB0023082798460A346D4443462A0000
:1014E000009338210123300007F00CFC2B781F42B9
:1014F00005D10A20013C01F02BFB002CEED104B0F9
:1015000080BCB846F0BDC04680EE011030B585B055
:101510006A4600250A4B7621938103AA022300958F
:10152000040007F0E5FB6A46064B76219381200014
:101530000223009503AA07F0DBFB05B030BDC046CF
:10154000F594FFFFF42F0000F0B517000F22F723EA
:1015500087B06A441370F63B0D00009376210600B5
:1015600007F0C6FB002304AC220000937621300074
:10157000063307F0C7FB6278237812011B0313437D
:10158000A278120913433B60E37822791B0312010E
:1015900013436279120913432B6007B0F0BDC046B4
:1015A00010B50B880211D21A52435B00C010C01A4A
:1015B00002240B5F121343430420095EDB124A43EB
:1015C00092139B189800C0188030001210BDC046BE
:1015D00070B5140013880A11D21A52435B00C91067
:1015E0000500C91A0220235E12134B430420215E1A
:1015F000DB124A4392139B18294A5B1094466344BA
:10160000991049430A22A05E4A1342430826A05F6C
:10161000D2105843401012188020000284469214C1
:10162000E08862445043C01332D01026A25FC91232
:101630004A430E26A15F4B435B009B180C21625E60
:101640009B101204D2181213521953019B1A9B00BB
:101650009B189A009B189A009B18124A5B429B1891
:1016600017D45B000100180001F03EFEC3085B4385
:101670005A0B1621635E810853431425625F1B13C6
:101680004A4352139B181221625E9B181B111818B3
:1016900070BD0100180001F027FE4000E6E7C046DB
:1016A0000006FFFF000050C370B58AB004AD0C0007
:1016B000060018220021280002F0B0FF0F22882324
:1016C0006A441370873B00937621300007F010FBCB
:1016D00000232A00009376213000183307F012FB14
:1016E0002B8823806B886380AB88A380EB88E380A2
:1016F0002B8923816B896381AB89A381EB89E3818A
:101700002B8A23826B8A6382AB8AA382EB8AE38271
:101710000AB070BDD0231B061B68974A9900F0B52C
:101720004E46894651585A4253412F225746454604
:10173000DE465B4293439846904BE0B59C4683B0AF
:1017400000270191E044002939D08D4B0F269B469C
:101750004246FB0808339B009C5801233D009A46F3
:101760000837002C22D031002140264218D05B4699
:101770004A469A582B00EA40203BDB17134052465A
:1017800013420DD1072208002A4092009040020027
:10179000EB087C483C339B001A502800019B98477B
:1017A00024090135002C01D0BD42DCD3202FCFD13C
:1017B00003B0F0BCBB46B246A946A046F0BD704B94
:1017C00000200F229B46C6083300414608339B0089
:1017D0005B5801000830002B00D1B2E017001F4019
:1017E000BC461A420FD04C465D460F002C59203F94
:1017F000CC40FF1727400124274204D16446614FA3
:101800003C36B600F4511E0900D19AE0170037406B
:10181000324213D04C1CA4465D464C462C596546BA
:101820000E00EC401F3EF61726400124264205D14B
:10183000EE08544C3C363F01B60037511E0A00D129
:101840007FE017003740324213D08C1CA4465D461F
:101850004C462C5965460E00EC401E3EF6172640BD
:101860000124264205D1EE08464C3C363F02B60024
:1018700037511E0B65D01700374032420DD0CC1CBB
:10188000A4465D464C462C5965460E00EC401D3E74
:10189000F61726400124264257D01E0C51D01400C2
:1018A0003440A44632420BD04C46354E0F1D3659BB
:1018B000FE40B2460E0054461C3EF60F26424BD068
:1018C0001E0D3ED014003440A44632420BD04C468C
:1018D0002B4E4F1D3659FE40B2460E0054461B3E5D
:1018E000F60F264240D01E0E2BD014003440A446E2
:1018F000324212D04C46224E8F1D3659FE40B2461F
:101900000E0054461A3EF60F264206D16446FE08E3
:101910003C3627061B4CB60037511B0FCF1D002B42
:101920000FD04C465D462E590124FE401939C91787
:101930003140214205D1F908124E3C311B07890084
:101940008B51202800D03EE732E7EE080D4C3C36A4
:101950003F03B6003751A0E76446FF083C37BE009E
:10196000084F2404F451ABE76446FE083C362705D3
:10197000044CB6003751B6E7742C002030410140CA
:1019800028E9002000400140094A83009A1810B558
:1019900014684022544080322240064CC000A446C5
:1019A00063441A60044B9C466044416010BDC046CD
:1019B00004C0014004D0014000400140074B8000BA
:1019C000C3181B68C90092000A435A400C231340F5
:1019D000034A9446604403607047C04604C0014017
:1019E00004D001408000002905D0064B9C4602230C
:1019F000604403607047044B9C46022360440360CC
:101A0000F8E7C04604E0014004F00140D0231B0683
:101A10001B6830B50500584243412F205B42834389
:101A20000E48EC08844607202840800081402000B2
:101A30000B4D3C3063448000A40041511B19002A27
:101A400005D08022920194466344196030BDC022C3
:101A50009201944663441960F8E7C0463041014062
:101A600000400140F8B545469846D0231B06DE46A7
:101A70001C689B462B4B57469A46A3004E469946F8
:101A8000E0B5534616004A469B5807000D00002B50
:101A900034D04346002B3FD053464A4641469950E6
:101AA000D0231B061C6863425C412F22072063423F
:101AB00093431D4A38409446FA081100800085403F
:101AC0003C311A486344890092000D509B18002E47
:101AD0000ED0802292019446634401210D201D60A6
:101AE00000F078F9F0BCBB46B246A946A046F8BD66
:101AF000C0229201944663441D60F3E74346002BE5
:101B0000D1D0534641460D2099500022084900F09B
:101B1000C7F95B461C68C6E70D20054900F0BAFA14
:101B2000BAE7C046742C002030410140004001401B
:101B300015170010D023F0B5C6461B0698461B6843
:101B40000C4F9B001600FA5804000D0000B510421F
:101B500009D1290014430D203200FC5000F0A0F9F7
:101B600080BCB846F0BD01F0B3FA43461B689B0049
:101B7000FA58EEE728E9002010B504000D2000F027
:101B800089FAD0231B061B6802499B005A58A243BE
:101B90005A5010BD28E900200123D02283401206AC
:101BA00093629361094A83009A1811684022514058
:101BB00080320A400649C0008C4663441A60054BD7
:101BC0009C460523604443607047C04604C0014002
:101BD00004D00140004001408023DB051868000F5D
:101BE0007047C0460FB400B5084883B004F0DCFA73
:101BF000049B002B07D005A91800019104F0FEF802
:101C0000034804F0D1FA012004F010F988EE011025
:101C100060EE0110EFF3108072B6034A1368002BD8
:101C2000FCD0BFF35F8F70472C0100D0BFF35F8FF4
:101C30000022024B1A6080F3108870472C0100D0FC
:101C400070B5EFF3108C72B60D4D2B68002BFCD0E5
:101C5000BFF35F8F0724CB08C618C05C01230C407C
:101C6000A3401C000440034207D118433070BFF367
:101C70005F8F2C608CF3108870BD1000FFF7B2FFEF
:101C80002C0100D0F8B54746CE46884680B5EFF324
:101C9000108C72B6214D2C68002CFCD0BFF35F8FE6
:101CA0009A422CD8D4080727055D0619012417404D
:101CB000BC402C421FD007210127894609E0D408E7
:101CC000055D06194C4639001440A1400C0029421C
:101CD00011D001329342F2D201204042BFF35F8F14
:101CE00000220E4B1A608CF3108800280FDBC0BC5A
:101CF000B946B046F8BD254310003570EEE7BFF396
:101D00005F8F00232B608CF31088012040424346F4
:101D1000002BECD00898FFF765FFC0462C0100D0DF
:101D200030B5EFF3108C72B60A4C2368002BFCD050
:101D3000BFF35F8F072301220B409A40CD08435D1C
:101D400093434355BFF35F8F002323608CF31088C8
:101D500030BDC0462C0100D0044A1078431CDBB2D1
:101D6000172B00D9102313707047C046E0160020CF
:101D700010B5064B064C82B00100009318221F23B9
:101D80002000FFF77FFF02B010BDC04698EE0110A3
:101D9000882C00200021044B044ABFF35F8F02C34C
:101DA0009342FAD17047C046000100D0800100D0B4
:101DB000054B064A1360064A136053609360D36074
:101DC00013615361936170478080808000E400E07C
:101DD00004E400E01F2318401E3B8340002905D087
:101DE000C021044A490053501360704780220149C2
:101DF0008B50FAE700E100E001228240034B1B68B0
:101E000013405A1E9341D8B27047C04600E100E02B
:101E100001238340014A13607047C04600E200E09E
:101E2000084B10309B688000C358002B07D0064A2F
:101E300000209B1A2F229A424041C0B270470020D6
:101E4000FCE7C04600ED00E0E416002070B50D0090
:101E5000EFF3108672B60F4A1368002BFCD0BFF365
:101E60005F8F0D4B10309B6884001B590B4A9342C7
:101E700003D09D4201D001F02BF9074B9B681D5107
:101E8000BFF35F8FBFF35F8F0022024B1A6086F3B0
:101E9000108870BD240100D000ED00E0CD010010DD
:101EA000F0B557464E46DE464546E0B585B00600DD
:101EB00000911700EFF3108B72B66A4A1368002B7B
:101EC000FCD0BFF35F8F0025674B5D579A46002D0E
:101ED00000DAA9E06B00654C01935B199B00984602
:101EE000A146C1444B4652469B7910361370604B55
:101EF000B6009B6899590B1B2F2B33D95D4B994228
:101F000000D0ACE0019B42469C465B4B6544AD0073
:101F100063535A4B0232A218043B9B1A1B05584AC2
:101F20005B0D651913436B80564B0121AB80FF237A
:101F3000AB71009BEF71AB604B460B4319004C4BF0
:101F40009B689951BFF35F8FBFF35F8F0022454BB2
:101F50001A608BF3108805B0F0BCBB46B246A946A8
:101F6000A046F0BD01200A008243D3798C46BB42D3
:101F700031D84546130044491B1B5B415943090DA9
:101F80003D4B63533D4B02356519043B5B1B1B0501
:101F90003B4D5B0D2B43AA464D466B800425AC465A
:101FA0005546E044131F44441B1B1B055B0D1D439A
:101FB0004B46997100999D8099604946DF71334B7A
:101FC00001431360BBE75800C01880002018C17996
:101FD000B9422FD902000623D356002BF3DA02931D
:101FE0002B4B61460393131D9A4604235B429C4688
:101FF000E14450464B461B1A1B055B0D9C46204B8B
:10200000957198466346404603439380019B5A1955
:102010009200039BA418A380029B1C4AA371009BFF
:102020002260E771A3608AE701F052F80025534669
:102030005D574FE7908802934005131D9A4603159C
:1020400061469C464046D444634604302018181A22
:10205000E0230005400D1B0218430390C5E701F083
:1020600037F84FE7240100D0CEEA0020E416002024
:1020700000ED00E0CD01001000A1FFFF14170020CB
:1020800000E0FFFF01BDFFFFAAAA00000148804752
:1020900001BD0000F0B5DE4657464E464546E0B568
:1020A0000C0083B0EFF3108872B6634A1368002BFC
:1020B000FCD0BFF35F8F614B61499A680300103316
:1020C0009F00D55900938D4243D0A54254D05D4E18
:1020D000AA1B2F2A3DD85C4B9C461B689A460123BD
:1020E0001A0099468240534613401F2201934B46E3
:1020F000024093409A468022634650469850BFF370
:102100005F8FEFF305839B46002B37D0009B5B4529
:1021100001D000F0DDFF2A004B469A4390688442CC
:1021200008D177E04B005B189B00F3189868844255
:1021300036D01A00062151560029F3DA844255D0D0
:10214000019B002B27D0C02251463F4B5200995093
:1021500019603A4B9B68DD51BFF35F8FBFF35F8F10
:102160000022354B1A6088F3108803B0F0BCBB46E0
:10217000B246A946A046F0BD0D00EAE72A004B464C
:102180009A4390688442D5D1062010561300002847
:102190000ADA0D0032E0802351462B4AD150D8E7AD
:1021A00006201856002822DB4200111889007418F6
:1021B0008946A1689960E179D971062161569971C2
:1021C000002925DBA488F11A640524154C4409195B
:1021D000E0240905490D24022143998013181B4A64
:1021E0009B001178F31899711070A9E713005946F4
:1021F000002914D1FF3191711549918013490A7852
:102200009A71144A9B1B5B415A43120D0A7097E75F
:102210001149E2E70620105613000028C4DA0F4ADD
:102220000F49D21A083A5002400D014399800D49D6
:1022300052080A43DA8083E7240100D000ED00E071
:10224000CD010010E416002000E100E0CEEA0020FD
:1022500001BDFFFFAAAA000001BD00001E1700205B
:1022600000F0FFFF00F8FFFF10B583080400032013
:102270002040FF24054AC0009446844081409B00D2
:1022800063441A68A2430A431A6010BD00E400E0E8
:1022900070B501240443EFF30581EFF3108C72B69F
:1022A000214A1368002BFCD0BFF35F8F1F4B050042
:1022B0001F4AED1A6D416A43120D1E4D8900AE682A
:1022C00052B27658A6421CD00621595691421CD0D3
:1022D00012215956914222D01E215956914220D0A6
:1022E0002A2159560324914210D0134B19781A70A1
:1022F0008171BFF35F8F00220B4B1A608CF3108843
:1023000070BDAB680D4C5C50EFE70024610009190B
:1023100089005B18FF21997109499980E5E701243B
:10232000F4E70224F2E7C046240100D0E4160020BE
:10233000AAAA000000ED00E0CEEA0020CD010010C6
:1023400001BDFFFF1F2110B5091A0248FFF7E8FC85
:1023500010BDC046DAEA002010B5084B084C82B028
:1023600001000093002205232000FFF78BFC0028CA
:1023700001DB1F23181A02B010BDC046B4EE0110D5
:10238000DAEA002070B504000E001500FFF7E4FC47
:102390000100200000F006F8A680E580BFF35F8F03
:1023A00070BDC046024B9C46614489000160704785
:1023B0004000003470B5114C114DAC420FD2FF26D5
:1023C0002368002B0CD0FFF7C7FC01002000FFF7AB
:1023D000E9FFA680BFF35F8F0834AC42F0D370BD35
:1023E000FFF7BAFC01002000FFF7DCFF2671BFF306
:1023F0005F8F0834AC42E3D3F1E7C046D81E00201B
:10240000E01E002010B50400FFF7A6FC010020002C
:10241000FFF7C8FFFF232371BFF35F8F10BDC046D6
:1024200010B50400FFF798FC01002000FFF7BAFF89
:10243000FF23A380BFF35F8F10BDC04610B504001B
:102440000120FFF795FC034BC3189B002360BFF3EB
:102450005F8F10BD40000034034B9C4661448900EF
:102460000160BFF35F8F7047400000340A4B19686A
:10247000EFF3108072B60A68002AFCD0BFF35F8FBA
:102480001B68BFF35F8F00221A6080F3108840BF83
:10249000002000217047C0464CEA0020F0B5DE461F
:1024A00057464E464546E0B583B0EFF30582032319
:1024B0001340B54A990052580091904601229A4023
:1024C000B24B93461A60B24B01932EE043469B8871
:1024D0001BB2002B00DB99E043469B79002B00D018
:1024E000DDE0434608241C5F002C00DA06E1434689
:1024F0005A6963001B19DB00D3189D68DC686B1CEC
:1025000000D107E1A34B00999C4661449A6A0B698C
:10251000A81A9B1A984200D20D619E4800F0AEFBAB
:102520008C4200DDEAE000D126E15B469948436336
:10253000434608229B5E9946002BC7DB4246526900
:102540005B0092464B44DB009A4453469E68DF682A
:1025500000F094FB8F42B9DC00D100E1002F00DADB
:10256000E1E05246534654691B69019A934200D1F7
:10257000D4E0414652460820085E528800042100FB
:102580001043984704000D0023002B4300D1CAE0FC
:10259000002D00DBE7E030003900001BA941534665
:1025A0009860D96000229A5E002A8FDB43465D69FD
:1025B00053009C18E4002C19A768E4688C4200DDE5
:1025C00084E702D1874200D980E746463281083647
:1025D0000DE08C4200D1D3E01E000023F25E002A01
:1025E0000ADB53009C18E4002C19A768E4689B18C8
:1025F000DB00EB188C42ECDD53461A804B463380EF
:1026000043469B881BB2002B00DA65E743461A69F4
:10261000EFF3108172B61368002BFCD0BFF35F8F0D
:1026200043469E88012342465B42938036B213693B
:10263000BFF35F8F00221A6081F31088002E00DA4A
:102640004AE743465D69083342469C467700BF1916
:10265000FF00EF19BB68604698460823D15E92469A
:10266000FC68002907DA0EE0A2424FD018000023D0
:10267000C15E002906DB4B005B18DB00EB18DA6853
:10268000A242F1DD524606800023FE5E3980002E14
:10269000DCDA904643469B79002B00D121E70023EA
:1026A00042469371434646460821595E08364B1C04
:1026B00024D047468946556902E006004B1C18D0D5
:1026C0004B005B18DB00E8180A008C46E95E438883
:1026D0001BB2002BF1DA01235B42DC178360C4607C
:1026E0004A4503D031803B8903803A81E1464B1C47
:1026F000E6D14C46B846002C00DBF8E640BF03B0FC
:10270000F0BCBB46B246A946A046F0BD9A68424519
:10271000ACD9B7E7631C00D0F4E6FEE620002369DD
:102720009847002825D1534642461B8813811269D9
:10273000EFF3108372B611680029FCD0BFF35F8FEE
:102740004246514652880A804246494651801269A3
:10275000BFF35F8F0021116083F31088B6E68642D5
:1027600000D8FBE6B2E60B4800F088FA0019694190
:1027700015E76568246807E7854200D8D5E6BDE718
:10278000874200D828E737E758D900203C70054039
:102790009D2400100040054070B52E4C2569002D89
:1027A00004D00A212C48FFF7FDFD70BD2B4E0321FC
:1027B000300000F059FAE660FFF7CEFA284B03220A
:1027C0009C46D02322701B061B6801216370254B99
:1027D0006044A3600F23800020610220638063694E
:1027E0004942A18019800231198647311D83585210
:1027F00018315A5275325C39995218320131995256
:102800001832013199521832013199520835183273
:102810009D520231183299521832013199521832B0
:1028200001319952183201319952183201319952BD
:102830001832013199520C4B0C49DC600130356281
:10284000FFF704FB01210320FFF7C4FA084B1D60CA
:10285000A7E7C0462C1700204CEA002000400540A6
:1028600040000034FFFF100058D900209D240010C4
:1028700038600540004870472C170020F8B51F004D
:1028800008AB1B7804001600002B08D100F0FEF9FD
:1028900032003B00121A8B41002B00DA53E0226910
:1028A000EFF3108072B61368002BFCD0BFF35F8F7C
:1028B0000223E15E63694A005218D2009B18002986
:1028C00037DB1A8862802269BFF35F8F00251560AD
:1028D00080F31088069A9E60DF601A61079A5A6139
:1028E0005A8801325204520C101C002A1FD082B2A6
:1028F0005880080410432669EFF3108772B63268D7
:10290000002AFCD0BFF35F8FA2881A80A1802369C0
:10291000BFF35F8F00221A6087F310880B4923787A
:102920008C4601329A40E36863441A60F8BD012086
:10293000DDE72369BFF35F8F00221A6080F3108800
:1029400001204042F2E70020F0E7C0463C200000B2
:1029500070B501000469EFF3108C72B6206800288E
:10296000FCD0BFF35F8F02200D5E4C6968004019F8
:10297000C0002418002D37DB208848800869BFF389
:102980005F8F002606608CF31088E36063880498EC
:10299000013320615B0405985B0CA26060611A1C26
:1029A000002B1FD093B22804628018430A69EFF30A
:1029B000108C72B61368002BFCD0BFF35F8F8B882E
:1029C00023808D800B69BFF35F8F00221A608CF328
:1029D00010880B7801329A40CB6808498C466344D2
:1029E0001A6070BD0122DDE70B69BFF35F8F002223
:1029F0001A608CF3108801204042F2E73C2000006E
:102A000010B543890A1493421ADD53009B1842699A
:102A1000DB00D3180469EFF3108C72B62268002A29
:102A2000FCD0BFF35F8F5A88090494B2090C8A4224
:102A300008D00369BFF35F8F00221A608CF31088FF
:102A4000002010BD8022120214435C800123026921
:102A50008371BFF35F8F002111608CF310880449EC
:102A600002788C469340C268012062441360E8E714
:102A70003C20000040787047F0B504000D000626A9
:102A80007642F717C64636196F4100B582B08F42BD
:102A900014D811D000F0FAF832003B00121A8B4122
:102AA000002B17DC002B47D02000290000F0F8F89D
:102AB00002B080BCB846F0BD8642EBD900220023AC
:102AC00016001F0000F0E2F832003B00121A8B41A2
:102AD000002BE7DD00F0DAF832003B00121A8B41E0
:102AE000002B0ADB00230193154B3200009315489D
:102AF0003B00FFF72DFF0028D6DB00239C46B046A5
:102B0000114A124E736A9F4204D8B16A8845CBD9E4
:102B10009F42C9D11168EFF3108072B60B68002B89
:102B2000FCD0BFF35F8F1368BFF35F8F61461960FE
:102B300080F3108820BFE5E7002AB5D0CAE7C04679
:102B40006D2400102C1700204CEA002000400540A6
:102B500070B5060000F09AF8FA2204000D00002378
:102B600030000021920001F051FC802300196941DE
:102B70001B06994202D3012002494042FFF77CFF25
:102B800070BDC046FFFFFF7FF0B5CE46474680B51B
:102B900004000D0083B0EFF305878846002F3ED177
:102BA0002E4EA1463378F06804339B00816A1B588F
:102BB000601A5B1A98420ED320BF294900204B6A45
:102BC000AB4203D38A6A0130944231D803B0C0BC0F
:102BD000B946B046F0BD00F059F822002B00121A99
:102BE0008B41002B2FDB1F4B2200009330002B006A
:102BF0000197FFF7ADFE011E25DD194B5A6AAA4267
:102C00001BD220BF3000FFF7FBFE154A0020536A9D
:102C10004345DBD3926A01309145D7D908E010498A
:102C200000204B6AAB42D1D38A6A0130A242CDD296
:102C30005B1B5A1E9341D8B2C8E79B6A9C42E1D9FC
:102C4000AA42DFD1DDE7064A0020536A4345BDD3DF
:102C5000926A01209145B9D9EAE7C0462C170020B5
:102C6000004005406D24001010B5024A0248FEF7EE
:102C7000E7FF10BDD0EE01108C2C00200300416A4C
:102C80000A00986A596A8A42FAD17047034B596A16
:102C90000A00986A596A9142FAD17047004005408B
:102CA000064A536A9942FCD807D1044B02E05A6A9B
:102CB000914202D19A6A8242F9D37047004005409E
:102CC000F8B5DE464E4657464546E0B58B4605000C
:102CD0000A991800160000F007FB0A9B6C001F02FF
:102CE000324B64199C46A4006444636881469F4249
:102CF00000D967602B1FDBB29846012B30D9C02367
:102D000080229B01E31812011A60294BAD0059592A
:102D10009A4600291BD17301E026226853401E40C9
:102D2000802342465B01E3181E60012A30D98023CC
:102D300080229B01E31812011A6053464A466760DD
:102D40005A51F0BCBB46B246A946A046F8BD5869E8
:102D500000F0CAFA013043001B18033BFDD2DAE74A
:102D60005B46012BCBD1C02303229B01E3181A60E1
:102D7000023AA3681A42FCD07301E0262268AD0033
:102D800053401E4080230A4A5B019246E3181E60AE
:102D90005A462168514003220A401A6001225B46CC
:102DA0009A40A3681A42FCD0C1E7C04600800040A8
:102DB000942C0020F0B546464F46D646C0B51F00BD
:102DC000344B44009C462418A4006444636888463D
:102DD0001600FF2B02D880235B006360031FDBB269
:102DE0009A46012B30D9C02380229B01E31812019F
:102DF0001A60294B85005959994600291BD1730146
:102E0000E026226853401E40802352465B01E318AF
:102E10001E60012A30D9802380229B01E318120111
:102E20001A6080235B0063604B465F51E0BCBA468A
:102E3000B146A846F0BD586900F056FA013043008B
:102E40001B18033BFDD2DAE74346012BCBD1C0234D
:102E500003229B01E3181A60023AA3681A42FCD0CD
:102E60007301E0262268850053401E4080230A4AF1
:102E70005B019146E3181E604246216851400322DF
:102E80000A401A60012342469340A2681342FCD0D4
:102E9000C1E7C04600800040942C0020014B800018
:102EA000C0587047942C0020F8B5040021481E003B
:102EB00017000D0000F018FA0100380000F014FAB5
:102EC000069B36041B031E432368002B20DB1A4B92
:102ED0001A49E3185A1E93418022920194465B429C
:102EE0001B0B174A1B0363441360164A13601F0031
:102EF0000A689743FBD1144B2560E2182123A06098
:102F000013602368002BFCDA0823E6601360F8BD29
:102F10003F2322681340AB42D9D1A3681B051B0D88
:102F20008342D4D1EE22E368D2021340B342CED121
:102F3000EDE7C046001BB7000040FDBF08C00040E1
:102F400000E0004000F000400430000010B5802494
:102F50001C4BE4051C6000281AD001231A4C1843AE
:102F60001A4BDC611A4C44401C6259629862802101
:102F7000144BC9051960174817490860E021C904B6
:102F80001960002A07D18022144B12061A6010BD66
:102F90000E4BD861EBE753019B1A9B009A188023D4
:102FA00012015B049A4209D213000D490B60074BD2
:102FB0005A608022094BD2051A60E8E7094B1A00D3
:102FC000F3E7C04600B00540D3C007B0008005401D
:102FD0002D3FF84FFCFF01000820014000A00540F4
:102FE000A43F0020FFFFFF008023024A9B000B4309
:102FF000D362704700800540142310B50100188883
:1030000004331B88984710BD162310B5010018889B
:1030100002331B88984710BDF8B54746CE4680B5A9
:103020000F1E19D0142399460433040000250126ED
:1030300098464B461888434621681B88984701C428
:10304000431E9841013540420640AF42F1D1300065
:10305000C0BCB946B046F8BD0126F8E7142370B5E8
:103060000400188804330D001B8803499847290081
:10307000030020009847C04655420000142370B555
:103080000400188804331B880D0005499847030085
:103090000020002C01DB0130A04029009847C046E9
:1030A00055420000AA23064A1B0113602F2305493D
:1030B000D360054B19605368002BFCDA7047C0469B
:1030C0000040024000B0FA00006002407047C04675
:1030D00010B50148FEF786FDF4EE011070B5074DFE
:1030E000074EB54209D20024013E761BB60808CD32
:1030F000984723000134B342F9D170BDD8E60110DE
:1031000014E70110054B064A06491A60064A074BA8
:103110001A6010000B689843FBD1704700E0004034
:10312000BFCDFBFE08C00040FE7F3C0000F0004029
:10313000044BDB6C002B03D18022034BD2021A60BC
:103140007047C046000011504C201150044A054BF6
:103150001A60054A1368DB018033FBD17047C04613
:10316000FFFFFF0100F0004008C000404022034B79
:103170009A675A671A67DA667047C04600F00140DE
:1031800010B5FEF707FE10BD70B5044D044CA968DC
:10319000C022200001F048FAAC6070BD00ED00E0F4
:1031A00000000020002310B5294C82B0A367FFF770
:1031B00079FF0122274B1A60636C012BFCD103229B
:1031C000254B1A60224A936B012BFCD101330093EB
:1031D0000121224A22480433FFF766FE052301211C
:1031E0000093204A2048FFF75FFE002202210420BE
:1031F0001E4BFFF7DFFD0022012105201C4BFFF7CE
:10320000D9FD0022002107201A4BFFF7D3FD002231
:1032100000210820174BFFF7CDFD8023DB00009332
:10322000002200210920134BFFF74AFD0022104B1A
:1032300000210620FFF7BEFD0420FFF72FFE0E49F8
:1032400000F052F801000020FFF7CEFE02B010BDE2
:10325000008000403CB0004030B00040002F685972
:1032600000800240008C864700C00240001BB7006F
:1032700040597307006CDC0240420F0001480421F2
:10328000014B18475017002019300010014B9B6864
:103290001847000050170020124A936F9B0815D260
:1032A0009066D166002905D0FFE7FFE7FFE7516F81
:1032B000106F704704B580210906C21751400028DD
:1032C00000D0C8431BF0B0F9002104BDF0B5146E66
:1032D000556E576F166FFFF7E3FF14665566576715
:1032E0001667F0BD000000D0114A936F9B0813D2FF
:1032F00010665166002905D0FFE7FFE7FFE7516F31
:10330000106F704704B5002801D00020C0431BF0A7
:103310008BF9002104BDC046F0B5146E556E576F91
:10332000166FFFF7E5FF1466556657671667F0BD21
:10333000000000D094464A4A926F9208624601D239
:1033400028E0C046F0B5464E346E756E776F366F26
:1033500000F020F89446424A14665566576716678F
:103360006246F0BD94463E4A926F9208624601D290
:1033700054E0C046F0B53A4E346E756E776F366FD6
:1033800000F04CF89446364A14665566576716673F
:103390006246F0BD002B24DB11D000293EDA00B5D7
:1033A000C943404200D1013100F038F8C9434042DE
:1033B00000D10131DB43524200D1013300BD002A6C
:1033C000EBD1002801D1002905D00020C90FC90781
:1033D00001D1C043410800B51BF00EF900220023C3
:1033E00000BD00B500290ADBDB43524200D10133A6
:1033F00000F014F8C943404200D1013100BDC94377
:10340000404200D10131DB43524200D1013300F090
:1034100005F8DB43524200D1013300BD002923D11E
:10342000002B18D1002A0CD0BC460D4F38667A66A6
:1034300000210023FFE7FFE7FFE77A6F386F674659
:103440007047002801D00748010000B51BF0D4F8F0
:103450000022002300BD02000B0000200021704765
:10346000000000D0FFFFFFFF002B00D0BFE0130CD7
:1034700028D1002AE7D080B4114F39667A66FFE779
:10348000FFE730B4040C7B6F396F1B0423433B66AA
:103490007A66FFE7FFE7FFE7C04684B27B6F3D6FC8
:1034A0001B0423433B667A66FFE7FFE7C046002321
:1034B0002C042D0C7A6F386F00196941B0BC70472D
:1034C000000000D0F0B594460025140E01D1120280
:1034D0000835140F01D112010435940F01D1920067
:1034E0000235D40F01D152000135D40B0134254FE0
:1034F0007C66254C3C660E0C93B2FFE7FFE7FFE7C6
:103500003C6F6643360C7703BE467343DF0B5B04A8
:10351000C01AB941130C7343DB18C91ACE086643AD
:10352000360CB64493B273431F0F1B01C01AB94146
:10353000130C73431F0B1B05C01AB941860D8F0274
:103540003E436643360C092D24DB520A7243801A2F
:103550007703460A6643360C16235B1BDE40DF40CA
:10356000BF1964466643821B70460435063301006A
:10357000D940A840C01900D30131A24206D200238D
:10358000F0BD0000000000D0FFFFFFFF121B013064
:10359000F3D3F1E709277F1BFE406446A2B27243D2
:1035A000801A00D20139220C7243130C1204821AC1
:1035B00099410B007046043513370100F940A840CB
:1035C000801900D30131002B02D1A2420AD2F0BDF2
:1035D000013000D30131121BFAD2013BF8D1A242D3
:1035E00000D2F0BD013000D30131121BF7E7F0B576
:1035F0001C0C00D080E00CB400251C0A04D11B0276
:10360000160E3343120208351C0B04D11B01160F92
:103610003343120104359C0B04D19B00960F3343B6
:1036200092000235DC0B02D192185B4101351C007F
:10363000971864410134464F7C66464C3C660E0C3C
:10364000FFE7FFE7FFE7C0463C6F6643360C7703B2
:10365000BE4697B27743C01B00D20139C01B00D2CF
:1036600001399FB27743C91BC91B170C77437E04EE
:10367000FF0B801BB941CE086643360C0C2D33DBA3
:10368000B644120B1F053A431B0B97B27743C01B7E
:1036900000D201399FB27743C91B170C77433E0410
:1036A0003F0C801BB941860D8F023E43664329279C
:1036B0007F1BFE400C3D7746AF40BF1930BCA2B225
:1036C000ABB272437343801A9941220C7243130CBC
:1036D0001204801A994102000B000137001BA94116
:1036E000F9D2781E0021F0BD0C277F1BFE407746E3
:1036F0007F0BAF40FF19E0E700245D1C07D0144F9B
:103700007D663966FFE7FFE7FFE7FFE73C6F95B2AD
:103710009EB265436643401BB141150C1E0C6543C8
:10372000664336042F0C3E432D04401BB1419942A1
:1037300004D202000B0020000021F0BD01D1904214
:10374000F7D3801A994101349942F2D3F6E7000089
:10375000000000D0FFFFFFFF48404140484018B440
:10376000134B5B68019308BD18B4114B1B680193A0
:1037700008BD94460F4A926F920805D2624618B46B
:103780000B4BDB68019308BD0A4AF0B5146E556E09
:10379000576F166F6246FFF7F2FF064A14665566CA
:1037A00057671667F0BD18B4014B9B68019308BDBD
:1037B000C0200020000000D0FFB5504042405040E3
:1037C00059404B40594000E0FFB5154F4C00640D87
:1037D00003D0BC4204D10C0314D80020090D090504
:1037E0005C00640D03D0BC4204D11C030AD8002243
:1037F0001B0D1B0501264B4009D44B4003D58B42C2
:1038000000D18242FFBD9942FCD19042FFBD0B43E3
:10381000DB1803431343F5D0C9434918FFBD00002B
:10382000FF07000000B5FFF7CFFF01D0002000BD6B
:10383000012000BD00B5FFF7C7FF804100BDC046B5
:1038400000B5FFF7C1FF01D9002000BD012000BD78
:1038500000B5FFF7B1FF01D9002000BD012000BD78
:1038600000B5FFF7A9FF804100BD012040054A00D7
:10387000121804D85A00121801D8002070470120ED
:10388000704700000021002805D17047C11748404B
:10389000401AFAD0C90713B5064B1B6898470CBCF1
:1038A000441CA2401005120B0349091B09051943CA
:1038B000114310BD48E900201F04000010B54C0062
:1038C000620D8023D218DB00D21A5B057E2A10DD40
:1038D0009E3A13DACC170903490819435242D140E2
:1038E000640001341532202A05DAD04008436043D1
:1038F00010BD002010BD0846604310BDC80FC018A1
:10390000013810BD18B4024B5B6A019308BD00007A
:10391000C020002018B4024BDB6D019308BD0000ED
:10392000C0200020C94211D300B549004908002237
:1039300000F014F8002904D4002240428A411146C4
:1039400000BD80210906002000BD000018B4024B14
:10395000DB6E019308BD0000C020002018B4024BAC
:103960009B6F019308BD0000C020002018B4024BDB
:10397000DB6F019308BD0000C020002018B4024B8B
:10398000DB6C019308BD0000C020002018B4024B7E
:103990001B6D019308BD0000C020002010B5014838
:1039A000FEF720F900EF0110132370B51D78012DEB
:1039B00019D014DD1D48FFF727FB06001C48FFF750
:1039C00023FB1C4C80223100200000F02DFE022D34
:1039D00006D01948FFF710FB184B186070BD154C46
:1039E000174BA364F5E7174B124C23606360A36089
:1039F000E36023616361A361E36123626362A362A5
:103A0000E36223636363A363E36323646364A36484
:103A1000E36423656365A365E36523666366A36664
:103A2000E36623676367A367E367D9E7534400004E
:103A300053460000C02000204C33000048E900201D
:103A4000E14300109D390010F0B54646D6464F467A
:103A50001D00924BC0B598464E00760D140088B0FC
:103A6000B044002E4ED08E4B9E424BD000228D4F44
:103A7000BF1B3B0580185941FFF788FF8A4A8B4BD3
:103A8000FFF777FE00228A4B00900191FFF7E8FED6
:103A900000280AD000980199864B0022FFF75FFEAC
:103AA000854B009001919846B0444346002B1BD0B3
:103AB000002220002900814BFFF7CAFE00280DD10B
:103AC0000022200029007E4BFFF7BAFE00283BD0E1
:103AD00043460020002B05DB00210DE0434600207B
:103AE000002BF9DB774907E02200009801992B00B1
:103AF000FFF759FE00F086FA08B0E0BCBA46B146BE
:103B0000A846F0BDFFF742FF674A684BFFF731FE5A
:103B10000022674B00900191FFF7A2FE0028C7D05A
:103B2000009801990022634BFFF719FE624B009049
:103B300001919846002220002900604BB044FFF715
:103B400087FE0028BCD0C9E72000290000F00CFA4D
:103B50000B00020006000F0020002900FFF7FFFD08
:103B60001A220290039100F0D9F900F0FDF94B0000
:103B700004000D005B0D09D0494A934206D0002491
:103B80001A2B00DC7FE0504D24184D4139003000E5
:103B9000FFF794FE82464046FFF778FE22002B0096
:103BA00006000F00FFF7FFFD0490059100F0DCF91F
:103BB00002000B000498059906920793FFF7CFFDCA
:103BC00022002B000490059102980399FFF7C7FD8E
:103BD00032003B00FFF7E7FD049A059BFFF7C4FDA9
:103BE000049005915046FFF751FE009A019BFFF7A4
:103BF000DAFD04000D0000F0B7F902000B0006002A
:103C00000F0020002900FFF7AAFD049A059BFFF78B
:103C1000ABFD009A019B04000D0002980399FFF789
:103C2000C2FD2B002200FFF79FFD00F0EBF94B00D7
:103C30005B0D04000D009946002B00D15CE7184B8A
:103C4000994500D158E7514643464B43069807999A
:103C50009A46FFF733FE390082443000FFF72EFE0C
:103C60004B465044C318002B09DD184A93420DDD22
:103C7000144AEB0FDB071A43002011003CE7EB0F5F
:103C80000020D90738E7C90FCD077FE700220305D9
:103C900012196B41100019002EE7C04601FCFFFF0E
:103CA000FF070000FF030000EF39FAFE422EE63F57
:103CB0000000E03F0000F03F02FCFFFF0000B040CA
:103CC0000000B0C00000F07F000060FEFE070000B2
:103CD000F0B54646D6464F460400C0B50D00160066
:103CE000012A56D0D70FBF187F10012F47D00323CA
:103CF000D21713409B199B109846012B35D00723F0
:103D000013409B19DB109946012B27D00F2313403A
:103D10009B191B119A46012B15D03300203B1F2BFA
:103D200006D90022FFF7D4FF02000B00FFF73BFD8E
:103D30000B000200FFF737FD5346DB0703D52200D7
:103D40002B00FFF730FD0B000200FFF72CFD4B4668
:103D5000DB0703D522002B00FFF725FD0B00020037
:103D6000FFF721FD4346DB0718D402000B00FFF7E5
:103D70001AFDFF0703D522002B00FFF714FD0200F8
:103D80000B00FFF710FDF60703D522002B00FFF70D
:103D90000AFDE0BCBA46B146A846F0BD22002B00A1
:103DA000FFF701FDE1E7C046F0B5C64600B582B0B9
:103DB00016001F0004000D0000900191002927DA71
:103DC0007B004F4A5B0D9B181CD43422D31A19D4A4
:103DD0001800203845D4353A8446824001214942B2
:103DE00099403000884301003800904302000A43A4
:103DF00008D1342B49D06246002A3CDB3B00D3403B
:103E0000DB0742D480231B06EB181D0000940195AC
:103E100030003900FFF752FD2B0D80460200002BC9
:103E200042D038498B423FD02903090B21433BD173
:103E3000354988425CDB802109018A4256DA3049E3
:103E40008C4663445A43314BD318002B52DD304922
:103E500000208B4251DC110500222E4B8018594165
:103E60001EE001222021524284461000C91AC84097
:103E70009A400243B2E720223900D21A91400A0048
:103E80003100D9400B001343BAE780231B06200002
:103E9000E91832003B008024FFF786FF2406091949
:103EA00002B080BCB846F0BD4346002B14D020338E
:103EB000402B14D84346002B09DA009A019B0020BE
:103EC0001449FFF756FC4346009001915A4200986E
:103ED0000199FFF7FDFEE3E700200E49E0E732001D
:103EE000009801993B00FFF7AFFDD9E7054AA6E727
:103EF0000A00A0E700200021D2E70749D0E7C0462A
:103F000001FCFFFFFF07000000F8FFFFFF030000B8
:103F1000FE0700000000F03F0000F07F4B0070B58E
:103F20005B0D04000D00002B0ED00C4EB3420BD0E5
:103F3000D318002B09DD0A498B420ADD094AEB0F31
:103F4000DB071A430020110070BDCB0F0020D907FA
:103F5000FAE70020110500196941F5E7FF070000A5
:103F6000FE0700000000F07F244A4B0094465B0DE2
:103F70006344F0B504000D005A1C21DB5A1C35D0F7
:103F8000342B1CDA3326F61A3700203F1CD40121CB
:103F9000B9400B000121B1400A0012196B41002FFA
:103FA0001EDB0224BC4021000224B4402000160085
:103FB000002544428D4126402B4030001900F0BDC1
:103FC000CB0F0020D907FAE720210120891BC84028
:103FD0000121B14003000A0012196B41002FE0DA01
:103FE00020240225A41BE5402900DDE7CB0F044A6D
:103FF000DB071A4300201100E1E7C04601FCFFFF88
:104000000000F03F264B70B50A0D04000D009A42E7
:104010003AD00022234BFFF713FC002834D10022B2
:1040200020002900204BFFF713FC002802D00020BD
:104030001E4970BD20002900FFF796FFFFF73EFCE8
:104040000600FFF723FC02000B0020002900FFF709
:1040500086FB174B174AFFF7A6FBFFF78FFC4B00B9
:1040600004000D005B0DE4D0134A9342E1D0F31835
:10407000002B0CDD114A93420DDDCB0F0B4ADB0701
:104080001A4300201100D4E700200021D1E7CB0F14
:104090000020D907CDE70020310500196941C8E7A4
:1040A000FF0F00000000B0C00000B0400000F07F33
:1040B000422EE63FEF39FAFEFF070000FE07000040
:1040C000F0B5D6464F464646C0B516001F00002242
:1040D000BB4B04000D00FFF7A5FB22002B000028BE
:1040E0003CD13B0D98465B055A0D91460022002BB2
:1040F0003CD020002900B34BFFF794FB002837D0B9
:10410000B14B994531D0984500D16CE0AF4B984503
:104110005DD0AC494B46AE4A9A1800D5F1E0342345
:104120009B1A9C46002B11DD1800203800D502E1B7
:1041300001225242824001206346404298403300AF
:10414000834338009043034300D0DAE032003B0061
:1041500020002900FFF728FE02000B0010001900C4
:10416000E0BCBA46B146A846F0BD0022944BF5E744
:104170002A0D53052900580D002B2BD1944B4B448D
:10418000002F33DB002B22DB3421C91A1FD4080097
:10419000203855D401235B42844683400122524299
:1041A0008A403000904302003800984303001343D4
:1041B0000DD122002B003429D0D06346002B00DA29
:1041C000ABE03E00DE4022002B00F607C6D4002202
:1041D0000023C3E77C4B9A469A4245D10022002F28
:1041E000F6DB7C4BBAE700227A4BB7E77A4A914577
:1041F000F9DD3422D31AF6D4180020382AD4353AFF
:1042000084468240012149429940300088430100A0
:104210003800904302000A43E5D1342B07D06246B0
:10422000002A00DA80E03E00D640F607DBD5694A76
:10423000EB0FDB071A43110000200B0002008DE793
:10424000012320225B4284461800521AD0408B4042
:104250000343A3E701222021524284461000C91AD9
:10426000C8409A400243CDE7584B9A4200D094E0B0
:10427000574B4B44002F1FDB002BB4DB3422D31AE7
:10428000B1D4180020386AD4353A8240012149421D
:10429000994034008C4321003C00944322000A439F
:1042A000A1D1342B72D0002869DB3E00C640002229
:1042B000F60796D5494B51E7474A914587DD3422A9
:1042C000D31A00D583E7180020383FD4353A82400E
:1042D00001214942994034008C4321003C00944321
:1042E00022000A4300D072E7342B52D000283FDB73
:1042F0003E00C6400022F60700D469E780231B0673
:104300002CE7002900DA6EE732003B00200029008C
:10431000FFF79AFB02000B0020E720233A005B1A0C
:104320009A40CE4016434EE720223900D21A9140DF
:10433000DE400E4379E7012220205242C01A1300CA
:10434000C340180063469A400243F4E6012220214C
:1043500052421400C91ACC409A402243B8E70122C5
:10436000202152421400C91ACC409A4022438DE7C2
:1043700020223900D21A9140DE400E43BAE72022B3
:104380003900D21A9140DE400E4390E70022134BD1
:10439000E4E6802300221B06E0E6D04509D09845DC
:1043A00000D0B7E60C4B0022984200DD10E7094B25
:1043B000D4E6094B0022984200DD12E70023CDE647
:1043C0000000F03F0000F0BFFF070000FF0F0000FB
:1043D00001FCFFFF0000F07FFE0300000000F0FF83
:1043E00007B5604601880A0A0230DF2AFAD1C9B24D
:1043F000820804D3028840880004104300E000686B
:10440000014A5050039007BDC02000205143434350
:10441000C9188C46110C83B24B4310B4040C614391
:1044200092B280B2504362431C041B0C001910BCB2
:1044300059411304120CC0185141614470470000E7
:104440004840414048400E4B5B6818470C4B1B6886
:1044500018470C4A936F9B0802D2094BDB68184738
:10446000F0B5146E556E576F166FFFF7F6FF054ADD
:104470001466556657671667F0BD014B9B68184771
:104480004CE90020000000D007B5484041404840BA
:1044900001E0C04607B54200120E03D0FF2A03D147
:1044A000420218D8C00DC0054A00120E03D0FF2AE0
:1044B00003D14A020FD8C90DC9050122414005D4D4
:1044C000414001D5814207BD884207BD01434918DB
:1044D00001D0C043001807BD00B5FFF7DBFF8041E6
:1044E00000BDC04600B5FFF7CFFF804100BD491AAF
:1044F000002807D108467047C10FC90700D54042C0
:10450000002817D0F44603B40B4B1B68984706BC31
:1045100081409E384042803107D20B0607D04900C7
:10452000490AC0051043084360470130F8E7490ACB
:104530008902F5E77047000048E90020014B5B6AFB
:10454000184700004CE90020014BDB6F18470000C2
:104550004CE9002010B50148FDF744FBB8E8011014
:10456000132310B510481C78FEF74EFD0100012CF6
:104570000AD003DD80220D4800F056F80C48FEF703
:104580003BFD0C4B186010BD084C5422200000F07D
:104590004BF82200084980322368002B00D12160AB
:1045A00004349442F8D1E9E7534600004CE9002076
:1045B0004C33000048E900205545001010B50400B8
:1045C00014F028FA002804D0034B04199C4200D8A8
:1045D00010BD0248FDF706FB0000042018EF011093
:1045E00010B50C0014F01CFD002804D0034B041976
:1045F0009C4200D810BD0248FDF7F4FA00000420E8
:1046000018EF011010B514F00FFA10BD0148042185
:10461000014B18476017002019300010014B1B6830
:104620001847000060170020014B5B681847000026
:10463000601700209A4200D2885470477047C046E5
:10464000F8B55746DE464E464546E0B599460A9BC4
:1046500007009A460D9B884693460B9C9B073BD1CF
:104660000C9B9C423DD21E1B0B9415000C005E441B
:104670002A004B46013521002020B847B542F7D12A
:10468000A0460B9C002C20D0454636195346321BC1
:10469000013C185D29004B46B847002CF6D12B0091
:1046A000350098460D9B9B070FD55B46EC1A0C9B7B
:1046B000A3420AD9464698462A004B46310020209C
:1046C0000134B84701354445F6D32800F0BCBB4659
:1046D000B246A946A046F8BD16001500002CD3D15D
:1046E000E0E71600002CCFD11500EEE7F0B54F46FD
:1046F0004646D646C0B584B098460EAB1B78944665
:104700009946129B0D9C109F119E9A0725D4002E4E
:1047100065D1BC4221D201221A409246202C00D100
:10472000E9E00C9A551E302202E0202C00D17BE0FB
:1047300001342A55A742F8D85246002A0DD0B44277
:104740000BD20C9A551E3022202C02D171E0202C65
:104750002DD001342A55B442F9D1DA063CD55A0598
:104760002ED4002C28D10F9A102A00D1B6E0022AAC
:1047700000D1BCE030220C9C227001244A46002A61
:1047800065D15A0700D499E02B220C9D2A5501349B
:1047900003930C9B62460093029643460194FFF7F5
:1047A0004FFF04B0E0BCBA46B146A846F0BD202495
:1047B000DA06EDD55A0503D4A74266D0B44264D0D8
:1047C0000F9A102A71D0022A57D0202CE0D0220054
:1047D000013430250C9FBD54202CD9D0CEE70122C6
:1047E00015001D40AA461A4236D04A46002A4AD130
:1047F0000C321A4247D1BC42A1D2202C91D1202E9A
:1048000017D82024DA06C3D55A051BD4202F01D08F
:10481000202ED5D11F220F9D102D6FD0022DD8D163
:1048200062250C9FBD54D0E75246002A79D0202E35
:10483000BDD92024DA06ABD55A0503D4202FE9D000
:10484000202EE7D00F9A102AA2D12024A0E72D22F3
:104850000C9D2A5501349BE7BC4200D37DE7202CF8
:1048600000D05EE7DA06F0D55A05EED4202F62D0EC
:10487000202EEAD134001F22CDE7202C00D187E77B
:1048800022000134CCE7013EB5E7621E012CC2D103
:104890000F9A102A00D06AE79A063BD558220C9C42
:1048A0002270283A6270022468E79A060ED4202CFF
:1048B000CBD078220C9D2A55013486E71A0700D404
:1048C00066E720220C9D2A55013461E7202CBCD0DC
:1048D00058250C9A12191570013476E79A0608D5F6
:1048E00058220C9C227030226270022446E760320B
:1048F000F7E77822F5E7002A83D1B3E7A21E013C4F
:104900009D0603D478250C9FBD5460E758250C9F65
:10491000BD545CE778220C9C2270483A62700224F5
:104920002CE7DA0600D433E75A058BD4202F00D0C9
:1049300044E71F226FE73C001F226CE710B50028F8
:1049400000D110BD01F0E4FBFBE7C0460B0010B541
:10495000002802D049681B68984710BDF0B557463B
:104960004E464546DE46E0B599B0824689469046B9
:104970000893229A239B10001900FEF776FF002867
:1049800000D0CDE0229823990122D94B5242FEF764
:1049900067FF002800D0C3E0229823990122D54B5D
:1049A0005242FEF747FF002800D0B9E02298239931
:1049B00000220023FEF73EFF002800D0F1E1229EF6
:1049C000239F8023269ADB001A400D92269A1A42D2
:1049D00001D1062324938023269A1B011A403B0011
:1049E00093460996334300D0B3E0002A00D0C2E1D9
:1049F000002300240A930B94002304250993259B8C
:104A00000024AB4200D95C1B0223269A1A400C9268
:104A1000269A134203D06B426B415B421C40099BB8
:104A2000002B07D00A9A0B9B30003900FEF7A1FE3D
:104A300006000F002298239900220023FEF7FAFEB9
:104A4000002803D0802109067B181F00269AAA4B54
:104A5000009601971340089E0493249B03940293AD
:104A6000424633004946504600F0AAF90400002DA2
:104A700067D02020269A4946024013005A425341EB
:104A80005B42621C18400A92330022004530D04736
:104A9000099A6F1ED317D4185C40D30F9B4600258C
:104AA00001E0202D13D008AA94461F232000634460
:104AB0000A2101355E19FEF717FC303131702000F4
:104AC0000A21FEF711FC26000400092EE9D805236F
:104AD0000693002304930A3303935B46089E0293D4
:104AE00010AB0A9A0093494633005046059701954A
:104AF000FFF7FCFD0C9A0400002A22D04246851ADA
:104B0000259AAA421DD9B0465746160022004346B0
:104B1000494620200135B8470134AE42F6D810E0AE
:104B2000269B42460493259B49460393249B50466B
:104B30000293229B239C00930194089B00F040F970
:104B40000400200019B0F0BCBB46B246A946A046FE
:104B5000F0BD6A4B78009C46400D6044FEF796FE1F
:104B6000674A684BFEF71FFE674A684BFEF7FCFD7D
:104B7000674A3B031B0B1A4304000D000998110000
:104B8000644B0022FEF7EBFD634A644BFEF70BFE1D
:104B900002000B0020002900FEF7E6FDFEF78EFE66
:104BA0000990FEF773FE5E4A5E4B04000D00FEF7AF
:104BB000FAFD00225C4BFEF7D7FDFEF77FFE5B4A55
:104BC0005B4B29000C902000FEF7EDFD04000C98D3
:104BD0000D00FEF75BFE574A574BFEF7E4FD02005F
:104BE0000B0020002900FEF7BAFD04000D000200B2
:104BF0000B000A940B95FEF7D6FD04000D000A98F1
:104C00000B9902000B00FEF7AFFD00220E900F91F2
:104C10004A4B20002900FEF7ACFD0022484BFEF76E
:104C2000A3FD02000B0020002900FEF7A2FD0022D8
:104C3000444BFEF799FD02000B0020002900FEF70F
:104C400098FD0A9A0B9B0D0080210400C9050020E5
:104C5000FEF785FD02000B0020002900FEF784FD11
:104C600002000B000E980F99FEF783FD0022284BDF
:104C7000FEF77AFD344B0C9C9C46644423050022CD
:104C8000FEF791FD04000D0002000B00300039001A
:104C90000A940B95FEF7CEFD00285DD123002A0073
:104CA000C625099963318D42AD4159466D4204359F
:104CB000002900D1A3E6134363D030003900234A12
:104CC000234BFEF7C5FD002807D000223000390035
:104CD000204BFEF7AFFD002853D1249B002B00D1C1
:104CE0008DE60D9B5A1E9341249AD31A249386E68F
:104CF000FFFFEF7FFFFFEFFFFFF7FFFF01FCFFFF6D
:104D0000FB799F501344D33FB3C8608B288AC63FBA
:104D10000000F03F0000F83F61436F63A787D23F78
:104D200071A379094F930A400000E03F1655B5BBC7
:104D3000B16B0240EF39FAFE422EE63F00002C40F4
:104D40000000244000001840FF0300002D431CEB2E
:104D5000E2361A3F80842E41099B0022013B0993D1
:104D60002000164B2900FEF704FD0A000100030095
:104D70000A910B9294E7002300240A930B940023DA
:104D80000993249A099B9A4214DDD31A013B249378
:104D90008023269ADB001A430023002526920993DC
:104DA0002DE6802212069446229B1E00239B63441C
:104DB0001F0006E600232493EAE7C04600002440D3
:104DC000F0B54546DE464E465746E0B595B08B46B3
:104DD000904699461E9A1F9B0A9019001000209D2C
:104DE000FEF743FD002800D0B0E11E981F99012274
:104DF000C74B5242FEF71EFD002800D037E11E9837
:104E00001F990122C34B5242FEF72AFD002800D011
:104E1000A7E01E981F990022BF4BFEF721FD002836
:104E200000D088E01E981F990022BC4BFEF702FDBF
:104E3000002800D07FE01E981F9900220023FEF773
:104E4000F9FC002800D0FAE000230B938023229C79
:104E5000229ADB001C401A4200D102E1092D00D841
:104E60007CE106A98C462C00172200233021093C46
:104E700062440133D154EF1A202B00D132E1A34216
:104E8000F7D10022A44B069207931E981F99FEF7B4
:104E900015FD0500FEF7FAFC02000B001E981F9995
:104EA000FEF75DFC069A079BFEF77DFC08900991D2
:104EB000FEF728FD0600FEF7E5FC02000B0008984F
:104EC0000999FEF74CFC0022954B08900991FEF7DA
:104ED000C7FC002800D1D2E001363000FEF7D2FC3A
:104EE000069A079BFEF7B4FC002801D00026013586
:104EF000AA46002F00D098E02800FEF7C7FC020069
:104F00000B001E981F99FEF72AFC854B0022060015
:104F10000F00FEF78FFC0CAB9A46002845D100220B
:104F2000300039007E4BFEF79BFC00283DD1EB079B
:104F30003BD5013539E0229B42460493219B5946DB
:104F400003930A981E9B1F9C0295009301944B4665
:104F5000FFF704FD15B0F0BCBB46B246A946A0461B
:104F6000F0BD229B5B0767D403226E4B229901920E
:104F7000039121990291009342464B4659460A9863
:104F8000FFF75EFBE6E706AA944617232800634472
:104F90000A2101341E19FEF77FF9303128003170E3
:104FA0000A21FEF779F9051E76D0202CEBD10323D8
:104FB000229A1340012B1DD1219B002B1AD00B9B51
:104FC000002B00D0BBE0229A0C33134200D0B6E095
:104FD000219BA34200D887E006AB9C4617223023D2
:104FE000624404E02199013413558C4259D0202C9D
:104FF000F8D12024229B01940393219B02935346D2
:10500000B9E706AA944617230A2163443000013405
:105010001D19FEF769F93031297030000A21013F6E
:10502000FEF762F9092E46D90600202CE9D1554633
:105030000CAB20249A46B8E704223B4B96E71E9A15
:105040001F9B00200021FEF78AFB01230B93802386
:10505000229C229ADB001E901F911C401A4200D015
:10506000FCE60022314B0627069207930DE7229BB0
:105070000393219B0293042301932D4B7BE7002292
:1050800008980999264BFEF7D5FB002800D02FE79A
:10509000002E4FD101362BE70323229A1340012B18
:1050A00066D0202CA6D00B9B002B1FD02D23524660
:1050B000135501349EE75546202CB9D030233A19B8
:1050C000002F08D0172006A9013409180B55202CF1
:1050D000AED09442F6D10CAB9A462E2352461355CD
:1050E000013462E72024CCE6202C83D0229B5B078E
:1050F00008D4229B1B0700D47CE72023524613557B
:10510000013477E72B2352461355013472E7C0462A
:10511000FFFFEFFFFFFFEF7F65CDCD4165CDCDC137
:105120000000E03F74EF01106CEF011080842E410D
:105130007CEF0110F30700D4DAE60136D8E6219BB4
:10514000013B2193A34200D946E7AAE7229B0393A0
:10515000219B029303230193074B0CE7074BEA00C3
:105160009B185C681B682F000693079400248CE64C
:10517000219B002B95D022E778EF01108841021087
:10518000F0B55746DE464E464546E0B5A5B01F0091
:105190002E9B91460D93CA4ACA4B82468B461A6093
:1051A000002900D129E2002338789846002800D150
:1051B0002BE2C54B44460C93C44B55464E460E93CA
:1051C0000AE0631C9846220033005946A84744462B
:1051D0003878002800D187E001372528F1D108234D
:1051E0009A46043B9946023B9846013B00229C4666
:1051F0000B943878791C0300203BDBB2102B03D8CA
:105200000C9C9B00E3589F460300303B0B9C0B9289
:10521000092B3AD9002398462A2800D1DDE0002343
:105220009A462E284BD00300683BDBB2122B1ED8C7
:105230000E9A9B00D3589F4663460F001A43D8E747
:1052400043460F001A43D4E74B460F001A43D0E7FA
:1052500010230F001A43CCE753460F001A43C8E748
:1052600080235B000B9A78781A430B9201310F0070
:1052700067284FD82428A4D90300253BDBB2422B52
:105280009FD893499B00CB589F46002398460B9B81
:1052900047469C4600E00131BB00DB195B001F184C
:1052A0000878303F0300303B092BF4D963460B9359
:1052B0000023B8469A460F0001312E28B3D1802032
:1052C0000B9AC00002430B923022524294467878E7
:1052D0000B0084446246092A00D8AAE12A2800D19A
:1052E000B9E10F0001319EE7A046AA46B146C84584
:1052F00003D301235B424B4498464B4642465946F2
:105300000020D047200025B0F0BCBB46B246A946DD
:10531000A046F0BD01006939C9B20F2900D950E794
:1053200001238B409C466B4B994663464A4613408B
:105330000F9362464B461A4200D068E10A2956D0C4
:10534000072900D03DE70D9B02CB9846002900D0ED
:1053500092E10B9B10211A008A431000113108437F
:10536000814680201A00C0000240110003421CD177
:1053700014AB9C461F220F2362440D959C461500DA
:105380000F9B0B9402E0202B0CD0110064460C40C4
:1053900020003730092C00D807380133E8540A09B7
:1053A0000F29F0D80B9C0D9D0F934B4608220693B6
:1053B0005346059208320392002204930F9B0292F7
:1053C00001931CAB22000093594633002800FFF7DD
:1053D0008DF9434604000D93FAE60D9B04CB9046ED
:1053E000002A79DB78780D930F00013117E70D9BC8
:1053F00002CB14930B789C4618005346002B00D127
:1054000034E1002815D05346013B013399460D94F1
:105410000B9C89444A460B00A14601E0934203D00D
:105420005C780133002CF9D14A465B1A0D9C0B9233
:105430000F938023DB0099460B9A13400D934B4644
:105440001A4204D00F9B534501D953460F930223B0
:1054500099460B9A13400B934B46134200D1F5E14A
:105460006346002B00D1D6E10D9B002B00D182E1D9
:105470000B1BD14631009A463B00A1442E005F46EB
:105480004D4622009B46894609E04B463900541C94
:10549000B0475346185D002800D192E122009542A2
:1054A000F3D14B465A46A946BB46350017001E00AD
:1054B0004C460B9B002B00D0ADE1149B0D9387E66F
:1054C000815100109C3F0020EC3F02103040021040
:1054D0007C400210419000000B9A283802430B9246
:1054E00042465242787890460F000D93013196E67D
:1054F00078786C2800D15DE180230B9A5B001A4319
:105500000B920131B3E680239B00ABE678786828E4
:1055100000D148E180230B9A01311A430B92A6E691
:10552000672800D1B2E0472800D11AE1452800D110
:105530001CE10B9A0721049242460D9B039207330C
:1055400052468B43190002920CC928000092019325
:105550000D91220033005946FFF700FA040037E6A8
:10556000462800D18DE00B9A0721049242460D9BFC
:105570000392073352468B43190002920CC928004C
:10558000009201930D91220033005946FFF718FC59
:1055900004001DE6631C984622003300594625206E
:1055A000A847444614E60D9B04330F93631C9946A9
:1055B0000B9B9A0700D40AE10D9B220018785946EC
:1055C0003300A84743464444012B00D86FE1B0465E
:1055D0002E0025004C46B9465F4622004346013462
:1055E00039002020B047AC42F7D12C00BB46350033
:1055F0004F4646460F9B0D93EAE5D64B38789A46C0
:1056000000239846002800D0D3E500246FE66F28D9
:1056100042D000D8FDE11023782800D19BE00B9AFE
:105620009A430B920A239C46002314930A330F9348
:1056300038E057460B9AB900C919490001330F18D1
:105640001878303F010030390929F4D9BA460B9255
:105650001F00591CE7E50D9BB87804CB0237D143F6
:10566000C9170A4092460D93791CDCE5002800D149
:10567000DFE602235B42C8E621200B9A02439146F3
:1056800076E620230B9A1A430B926CE780230B9A41
:105690001B011A430B924CE708239C4600231493EA
:1056A00008330F930B9880230200DB001A4011008F
:1056B0000200184200D080E00C239A43100080239F
:1056C00002009B001A400B92184200D0F1E08023A8
:1056D00002005B001A4091460D9A0432149218425F
:1056E00000D0C3E2430600D5D7E0030600D421E38F
:1056F0000D9B1B880993002B00D02DE1103398439C
:10570000002900D128E100239946434605935346DA
:1057100004930F9B06900393002302934B4601933F
:105720001CAB22000093594633002800FEF7DEFF31
:105730000400C2E6582809D0622800D0E3E2022320
:105740009C460023149302330F93ABE720230B9A5C
:105750001A430B92103B9C460023149310330F9373
:10576000A0E780230B9A1B011A430B9220230B9A6C
:105770001A430B92DDE60B1B9A460F9B99463B00A2
:1057800037005E469B4622003B003100A847534647
:105790000134185D0028F6D14B460F935B46B346A3
:1057A0003E001F0085E6C0230B9AB8781A430B927F
:1057B000F91C5CE5C0239B00F6E70D239A4310001B
:1057C0007DE75B463500BB464E461F0071E643460B
:1057D000012B66D9631E434432002E001D003B009E
:1057E000A2465F4691469B4622004B460134390053
:1057F0002020B047AC42F7D15B463500BB464E4651
:10580000A14654461F000D9B4A461878594633005E
:105810004444A847EEE60F9BA146984500D84CE6C5
:105820004444E41AB0462E0025004C46B9465F4673
:1058300022004346013439002020B047AC42F7D162
:105840002C00BB4635004F46464636E60F9880454D
:1058500000D873E24346E218131A32002E001D00EE
:105860003B0091465F469B460F9122004B46013418
:1058700039002020B047AC42F7D15B46BB461F0041
:1058800043460F9901330F930B7835009C464E46E3
:105890006046002800D0E7E50FE60D9B1B780993D2
:1058A00029E70D9B2200187859463300A8474C463B
:1058B000A0E60D9AFA3BFF3B07329A430133994623
:1058C00091444B460D931368526815921A4306D1C2
:1058D0001032904300220992002900D083E0612217
:1058E000810600D54122D2B20A9214AA91460A9AA0
:1058F00000210A3A0B9242461792524618925A4693
:10590000B24609911E001F31149B4944BB461694B0
:105910001A950024674698468946159D19901B9252
:105920000AE03032D2B24B4601341A55A8454CD069
:10593000202C4CD006000D003A0000233000290036
:10594000FDF710FDD2B2092AEBD90B9B9C466244AD
:10595000D2B2E8E73D4600106123820600D541231C
:10596000DBB20A3B0B93434614A91F228C461593C6
:1059700053466244B2460D9417974C468046A9465A
:105980001700099D0F9E169308E03033DBB20134F7
:105990003B55B5420ED3202C0CD005003100280019
:1059A000FDF7A2FCCBB20929EFD90B9A94466344C8
:1059B000DBB2ECE7159B40469846169B4D46564693
:1059C000A1469A460D9C179F9FE6B742B0D9179BF8
:1059D00056469846189B5F469A461B9B09949B46E1
:1059E000169C19981A9D43460593534604930F9BA2
:1059F0000690039300230293099B01931CAB2200A2
:105A00000093594633002800FEF770FE0400FFF7AC
:105A1000DFFB10230B9A9A430F92692800D091E183
:105A20000B9980230A00DB001A4010000A0019427B
:105A300003D0112118008A430F920F9A802311007E
:105A40009B0019408C461A425BD1802311005B00F9
:105A5000194089460D9904310B911A4200D0B2E0E9
:105A600013005B0600D4EDE00D9B1B781A00D90FE4
:105A70000D91002B00D1A3E0100014AA94464246D9
:105A80001F23159252466344A846BA464D461494C5
:105A9000B14604001F00169201E0202D0FD0200017
:105AA0000A21FDF721FC01357E19303131702000CB
:105AB0000A21FDF719FC26000400092EEDD8159BDC
:105AC0004E46A94645469846169B57469A46149C0C
:105AD0000F9B069343460593534604930A2303936F
